:100000000C945B000C9481000C9481000C94810092
:100010000C9481000C9481000C9481000C9481005C
:100020000C9481000C9481000C9481000C9481004C
:100030000C9481000C9481000C9481000C9481003C
:100040000C9437020C9481000C9430040C948100C1
:100050000C9481000C9481000C9481000C9481001C
:100060000C9481000C948100B503000024272A0021
:100070000025282B0000232629040404040404047A
:100080000402020202020203030303030301020447
:10009000081020408001020408102001020408100A
:1000A0002000000007000201000003040600000019
:1000B00000000000000011241FBECFEFD4E0DEBF1F
:1000C000CDBF11E0A0E0B1E0EAE7FBE002C005909F
:1000D0000D92A432B107D9F711E0A4E2B1E001C05A
:1000E0001D92A43FB107E1F710E0CAE6D0E004C0DA
:1000F0002297FE010E94B905C836D107C9F70C94B2
:1001000077010C9400001F93CF93DF938091060139
:100110000E94A001892BD1F7809106010E94A001C5
:10012000892BD1F3809106010E94A001892BD1F780
:1001300010E0C0E0D0E0809106010E94A001892B70
:10014000D1F7809108010E94A0010C2E02C0880FF7
:10015000991F0A94E2F7182B809106010E94A001D2
:10016000892BD1F32196C830D1052CF3809106015B
:100170000E94A001892BD1F7809106010E94A00165
:10018000892BD1F3809106010E94A001892BD1F720
:10019000809106010E94A001892BD1F3812F99271C
:1001A000DF91CF911F910895FF920F931F93CF93EB
:1001B000DF930E948300F82E80932801C82FDD274B
:1001C0008091040190910501C817D90731F481E0AD
:1001D00090E09093250180932401009120011091DB
:1001E00021016091240170912501209169013091D4
:1001F0006A0140E050E015C0FA01E45FFE4F8081E3
:100200008F1569F46115710551F4F901E75DFE4F31
:10021000DA01AA5EBE4F8C9180832F5F3F4F4F5F04
:100220005F4F4017510744F330936A0120936901EF
:100230008091020190910301C817D90751F580916F
:100240002901882361F0C9E2D1E00BE611E004C086
:10025000C8010E94FD02199268816623C9F760E017
:1002600071E08BE691E00E94960310926A01109271
:10027000690161E080910A010E94EC016CE271E089
:1002800080E090E00E94740260E080910A010E9488
:10029000EC018091280199272091040130910501FA
:1002A0008217930721F010922501109224011092D9
:1002B0002801DF91CF911F910F91FF90089560E089
:1002C000809108010E94820160E0809106010E94F5
:1002D000820161E080910A010E94820140E855E2BA
:1002E00060E070E08BE691E00E94AF030895CFEFED
:1002F000D4E0DEBFCDBF0E94A3020E945F010E9436
:10030000D400FDCF282F3327C90183579F4FFC010D
:10031000949127583F4FF9018491882381F0E82F69
:10032000FF27E659FF4FE491FF27662329F48081D8
:1003300090958923808308958081892B80830895F7
:10034000482F5527CA018F559F4FFC012491CA01A0
:1003500083579F4FFC01949147585F4FFA013491A6
:10036000332319F480E090E00895222331F1233003
:1003700021F4809180008F7705C0243031F4809182
:1003800080008F7D8093800018C0213019F484B5DF
:100390008F7704C0223021F484B58F7D84BD0DC0D9
:1003A000263021F48091B0008F7705C0273029F4E2
:1003B0008091B0008F7D8093B000E32FFF27EC5831
:1003C000FF4FE491FF27808120E030E0892311F086
:1003D00021E030E0C9010895482F5527CA018F5503
:1003E0009F4FFC012491CA0183579F4FFC019491B8
:1003F00047585F4FFA0134913323C1F1222331F181
:10040000233021F4809180008F7705C0243031F4AF
:10041000809180008F7D8093800018C0213019F476
:1004200084B58F7704C0223021F484B58F7D84BDDC
:100430000DC0263021F48091B0008F7705C02730A1
:1004400029F48091B0008F7D8093B000E32FFF27C7
:10045000E159FF4FE491FF27662329F480819095AD
:100460008923808308958081892B808308951F923A
:100470000F920FB60F9211248F939F93AF93BF9358
:100480008091700190917101A0917201B0917301FE
:100490000196A11DB11D8093700190937101A093ED
:1004A0007201B0937301BF91AF919F918F910F90A3
:1004B0000FBE0F901F90189560917001709171019F
:1004C000809172019091730127E0660F771F881F5A
:1004D000991F2A95D1F72DE730E040E050E00E94C7
:1004E0006605CA01B9010895AF92BF92CF92DF921B
:1004F000EF92FF920F931F935B016C010E945C02CD
:100500007B018C010E945C026E197F09800B910BAC
:100510006A157B058C059D05A8F31F910F91FF902F
:10052000EF90DF90CF90BF90AF900895019751F07A
:10053000880F991F880F991F02972FB7F89401977A
:10054000F1F72FBF08957894109270011092710105
:10055000109272011092730184B5826084BD84B5DB
:10056000816084BD85B5826085BD85B5816085BDAE
:10057000EEE6F0E0808181608083E1E8F0E0808158
:1005800082608083808181608083E0E8F0E0808108
:1005900081608083E1EBF0E0808184608083E0EB28
:1005A000F0E0808181608083EAE7F0E08081846010
:1005B000808380818260808380818160808380816C
:1005C000806880831092C100089508950895CB013A
:1005D000BA013327442755270E94760408952AE05C
:1005E0000E94E7020895AB01662777270E94EF0279
:1005F0000895862F0E946E040895862F0E946E042F
:1006000008950F931F938C016DE00E94FD026AE034
:10061000C8010E94FD021F910F9108950F931F932F
:100620008C010E94EF02C8010E9401031F910F91EB
:1006300008950F931F938C010E94F302C8010E943A
:1006400001031F910F9108950F931F938C010E9436
:10065000F902C8010E9401031F910F9108950F93A1
:100660001F938C010E94FD02C8010E9401031F918B
:100670000F910895EF92FF920F931F93CF93DF9303
:10068000EC017A018B0177FF0BC06DE20E94FD0245
:1006900010950095F094E094E11CF11C011D111DD2
:1006A0002AE0B801A701CE010E94E702DF91CF91B5
:1006B0001F910F91FF90EF9008950F931F938C015E
:1006C0000E943A03C8010E9401031F910F910895EF
:1006D0002115310521F4642F0E94FD0208952A306E
:1006E000310519F40E943A0308950E94E702089523
:1006F0000F931F938C010E946803C8010E9401039D
:100700001F910F910895AB01662757FD6095762FD5
:100710000E943A0308950F931F938C010E94830354
:10072000C8010E9401031F910F910895CB010E94FF
:10073000460508950F931F938C010E949603C801EC
:100740000E9401031F910F9108950E9427040895AC
:100750000E94080408950E94F70399270895CB0189
:10076000BA010E94B603089508950895EF92FF928A
:100770000F931F937B018C0122E030E040E050E0BA
:100780000E948805205C3D4B404F5F4FCA01B90174
:10079000A80197010E9488052150304040405040F8
:1007A000BB2757FDBA95A52F942F832F2F5F3F4F5F
:1007B0004F4F5F4F8093C50021502093C400E1EC60
:1007C000F0E0808180618083808188608083808187
:1007D000806880831F910F91FF90EF900895982F6C
:1007E0008091C00085FFFCCF9093C6000895809152
:1007F0006C0190916D0180589F4F20916E01309156
:100800006F01821B930B60E870E00E94530508950E
:1008100040916E0150916F0180916C0190916D013A
:100820008417950719F48FEF9FEF0895FA01EC589C
:10083000FE4F2081CA01019660E870E00E945305D6
:1008400090936F0180936E01822F99270895809174
:100850006E0190916F0190936D0180936C010895EA
:100860001F920F920FB60F9211242F933F934F9325
:100870005F936F937F938F939F93AF93BF93EF9308
:10088000FF934091C600E0916C01F0916D01CF01A2
:10089000019660E870E00E9453059C0180916E0112
:1008A00090916F012817390739F0EC58FE4F4083BB
:1008B00030936D0120936C01FF91EF91BF91AF9147
:1008C0009F918F917F916F915F914F913F912F9168
:1008D0000F900FBE0F901F9018950895982F80913C
:1008E000C00085FFFCCF9093C60008952F923F92E1
:1008F0004F925F926F927F928F929F92AF92BF9230
:10090000CF92DF92EF92FF920F931F93CF93DF93DB
:10091000CDB7DEB7A0970FB6F894DEBF0FBECDBF40
:100920006B017C0129013A01611571058105910571
:1009300041F48091C00085FFFCCF80E38093C60026
:100940004BC08824992454011E010894211C311C99
:100950008101080D191DC701B601A30192010E9472
:100960006605F80160830894811C911CA11CB11CD0
:10097000C701B601A30192010E94660569017A01CF
:10098000211531054105510519F708948108910891
:10099000A108B108F101E80DF91D0894811C911C12
:1009A000A11CB11C14C0089481089108A108B108C9
:1009B00080818A3018F4982F905D02C0982F995C3E
:1009C0008091C00085FFFCCF9093C60031978114C1
:1009D0009104A104B10439F7A0960FB6F894DEBFD4
:1009E0000FBECDBFDF91CF911F910F91FF90EF9080
:1009F000DF90CF90BF90AF909F908F907F906F903F
:100A00005F904F903F902F90089520E130E040E0BC
:100A100050E00E947604089528E030E040E050E085
:100A20000E947604089522E030E040E050E00E9409
:100A3000760408958091C00085FFFCCF8AE0809302
:100A4000C6000895EF92FF920F931F937B018C01D4
:100A500097FF0FC08091C00085FFFCCF8DE280938F
:100A6000C60010950095F094E094E11CF11C011D66
:100A7000111D2AE030E040E050E0C801B7010E94BB
:100A800076041F910F91FF90EF900895FC0107C02D
:100A90008091C00085FFFCCF31969093C600908175
:100AA0009923B1F7089597FB092E07260AD077FD01
:100AB00004D049D006D000201AF4709561957F4F7C
:100AC0000895F6F7909581959F4F0895A1E21A2E0B
:100AD000AA1BBB1BFD010DC0AA1FBB1FEE1FFF1FE2
:100AE000A217B307E407F50720F0A21BB30BE40B32
:100AF000F50B661F771F881F991F1A9469F7609579
:100B00007095809590959B01AC01BD01CF01089532
:100B100097FB092E05260ED057FD04D0D7DF0AD04B
:100B2000001C38F450954095309521953F4F4F4F1C
:100B30005F4F0895F6F790958095709561957F4F7A
:100B40008F4F9F4F0895AA1BBB1B51E107C0AA1FDF
:100B5000BB1FA617B70710F0A61BB70B881F991F5E
:100B60005A95A9F780959095BC01CD010895EE0F97
:0A0B7000FF1F0590F491E02D099499
:100B7A000A005A00F000030002000D0045161E2666
:100B8A00252E363D3E463031323334353637383904
:040B9A000A0040000D
:00000001FF
