:100000000C945C000C9484000C9484000C94840088
:100010000C9484000C9484000C9484000C94840050
:100020000C9484000C9484000C9484000C94840040
:100030000C9484000C9484000C9484000C94840030
:100040000C9474070C9484000C9451060C94840056
:100050000C9484000C9484000C9484000C94840010
:100060000C9484000C948400000024272A000025AE
:10007000282B000023262904040404040404040299
:100080000202020202030303030303010204081035
:100090002040800102040810200102040810200002
:1000A0000000070002010000030406000000000039
:1000B000000000008702210511241FBECFEFD4E00D
:1000C000DEBFCDBF11E0A0E0B1E0EAE1F1E102C0A6
:1000D00005900D92A439B107D9F712E0A4E9B1E077
:1000E00001C01D92AA32B107E1F710E0C8EBD0E0E1
:1000F00004C02297FE010E948808C43BD107C9F7BB
:100100000E9446040C948C080C94000070930F011C
:1001100060930E01615070406230710530F081E0F3
:1001200090E090930F0180930E01089570930F015A
:1001300060930E01615070406230710530F081E0D3
:1001400090E090930F0180930E01089560E08091FC
:1001500004010E948C0581E090E00E94D30761E0D9
:10016000809104010E948C0581E090E00E94D307F9
:1001700060E0809104010E948C0561E070E080E005
:1001800090E00E94B1070895EF92FF920F931F93A2
:10019000CF93DF937C018B010F701070C09106012B
:1001A000D091070108C0602F61708C2F0E948C05D0
:1001B00015950795219680910C0190910D018C1752
:1001C0009D078CF7C7010E94A600DF91CF911F9178
:1001D0000F91FF90EF9008950F931F93CF93DF93AC
:1001E0008C01EB0160E0809100010E948C05809100
:1001F000940190919501892B29F060E08091020192
:100200000E948C05BE01C8010E94C400DF91CF91FD
:100210001F910F910895EF92FF920F931F937C010E
:100220008B0194E0759567959A95E1F7C7010E9457
:10023000C4000F701070B801C7010E94C4001F9164
:100240000F91FF90EF9008950F931F93CF93DF933B
:100250008C01EB0161E0809100010E948C0580918E
:10026000940190919501892B29F060E08091020121
:100270000E948C05BE01C8010E940B01DF91CF9145
:100280001F910F910895EF92FF920F931F93CF93B9
:10029000DF937C01EB0100E010E009C0AC0FBD1F53
:1002A0006C91772767FD7095C7010E942401A02FEC
:1002B000BB270F5F1F4FFE0101900020E9F7319728
:1002C000EC1BFD0BAE17BF0748F3DF91CF911F91D9
:1002D0000F91FF90EF9008950F931F93CF93DF93AB
:1002E0008C01EB0160E0809100010E948C058091FF
:1002F000940190919501892B29F060E08091020191
:100300000E948C05BE01C8010E940B01DF91CF91B4
:100310001F910F910895AF92BF92CF92DF92EF920B
:10032000FF920F931F93CF93DF935C016B01C0E0AB
:10033000D0E07A010027F7FC0095102F0AC068E191
:1003400070E0C5010E946C01C801B7010E94B107AD
:100350002196CC15DD059CF3DF91CF911F910F9174
:10036000FF90EF90DF90CF90BF90AF900895EF9205
:10037000FF920F931F93CF93DF937C01EB018A01D0
:1003800062E070E00E946C0180910E0190910F017B
:10039000019721F0229711F4085D1F4FC0E0D0E0D3
:1003A00006C064E170E0C7010E946C012196C0178D
:1003B000D107BCF3DF91CF911F910F91FF90EF9088
:1003C0000895CF93DF93EC0161E0809104010E94D6
:1003D000220561E0809100010E9422058091940134
:1003E00090919501892B29F061E0809102010E9492
:1003F000220561E0809106010E94220561E0809162
:1004000008010E94220561E080910A010E942205F4
:1004100061E080910C010E94220562E370E080E0BF
:1004200090E00E94B10763E070E0CE010E94EC0012
:1004300065E070E080E090E00E94B10763E070E06A
:10044000CE010E94EC0084E690E00E94D30763E0B6
:1004500070E0CE010E94EC0065E070E080E090E08A
:100460000E94B10762E070E0CE010E94EC0062E001
:1004700070E0CE010E94EC0060910E0170910F01BE
:100480006150704023E0660F771F2A95E1F7CE0197
:100490000E94EC008CE390E00E94D3076CE070E0D7
:1004A000CE010E946C018CE390E00E94D30761E0D2
:1004B00070E0CE010E946C0163E070E080E090E0AB
:1004C0000E94B10766E070E0CE010E946C0161E01D
:1004D00070E080E090E00E94B107DF91CF91089535
:1004E00061E070E00E946C0161E070E080E090E00B
:1004F0000E94B1070895019749F46F5F7F4F31F46F
:1005000062E070E086E991E00E94960008956FEF46
:100510007FEF81E090E00E947B0208950E9499079E
:100520002091990130919A0140919B0150919C0139
:10053000621B730B840B950B69557B418040904087
:1005400088F00E949907AB01BC0140939901509338
:100550009A0160939B0170939C0181EA91E00E9453
:10056000C90408950E9499072091990130919A0138
:1005700040919B0150919C01621B730B840B950B66
:10058000685E73408040904089F50E949907AB01F6
:10059000BC018091990190919A01A0919B01B09129
:1005A0009C01481B590B6A0B7B0B81EA91E00E946E
:1005B0007A0442E350E064E170E086E991E00E9451
:1005C0008B0186E991E00E94700260E171E086E9AA
:1005D00091E00E94430140E050E062E070E086E973
:1005E00091E00E94B70162E271E043C00E94990766
:1005F0002091990130919A0140919B0150919C0169
:10060000621B730B840B950B6459714180409040C1
:10061000A9F50E949907AB01BC01809199019091C5
:100620009A01A0919B01B0919C01481B590B6A0B48
:100630007B0B81EA91E00E947A0442E350E064E19E
:1006400070E086E991E00E948B0186E991E00E94CA
:10065000700260E371E086E991E00E94430140E0AE
:1006600050E062E070E086E991E00E94B7016DE33E
:1006700071E086E991E00E94430108950E94990784
:100680002091990130919A0140919B0150919C01D8
:10069000621B730B840B950B68557B418040904027
:1006A00031F50E949907AB01BC01809199019091AD
:1006B0009A01A0919B01B0919C01481B590B6A0BB8
:1006C0007B0B81EA91E00E947A0442E350E064E10E
:1006D00070E086E991E00E948B0186E991E00E943A
:1006E00070026BE471E086E991E00E944301089595
:1006F0000E94990720919D0130919E0140919F0198
:100700005091A001621B730B840B950B61577741CD
:100710008040904058F00E94990760939D0170932B
:100720009E0180939F019093A00108950E949907D4
:1007300020919D0130919E0140919F015091A00117
:10074000621B730B840B950B605D7740804090407B
:10075000E9F442E350E064E170E086E991E00E9450
:100760008B0186E991E00E94700266E571E086E9FE
:1007700091E00E94430140E050E062E070E086E9D1
:1007800091E00E94B7016EE571E02FC00E949907C9
:1007900020919D0130919E0140919F015091A001B7
:1007A000621B730B840B950B605A7F408040904016
:1007B00009F542E350E064E170E086E991E00E94CF
:1007C0008B0186E991E00E9470026AE671E086E999
:1007D00091E00E94430140E050E062E070E086E971
:1007E00091E00E94B70169E771E086E991E00E941B
:1007F000430108950E94990720919D0130919E0127
:1008000040919F015091A001621B730B840B950BCB
:10081000605777418040904091F442E350E064E1BA
:1008200070E086E991E00E948B0186E991E00E94E8
:10083000700263E871E086E991E00E944301089547
:100840000E947803089540E855E260E070E081EA94
:1008500091E00E941B0586E991E00E94E1010E945F
:1008600078030E9499076093990170939A0180938D
:100870009B0190939C010E94990760939D01709346
:100880009E0180939F019093A0010895CFEFD4E043
:10089000DEBFCDBF0E94E0070E9423040E94200417
:1008A000FDCF08950895CB01BA013327442755277A
:1008B0000E94970608952AE00E9453040895AB0110
:1008C000662777270E945B040895862F0E948F0673
:1008D0000895862F0E948F0608950F931F938C0111
:1008E0006DE00E9469046AE0C8010E9469041F91DA
:1008F0000F9108950F931F938C010E945B04C80110
:100900000E946D041F910F9108950F931F938C0106
:100910000E945F04C8010E946D041F910F91089509
:100920000F931F938C010E946504C8010E946D04FF
:100930001F910F9108950F931F938C010E946904DA
:10094000C8010E946D041F910F910895EF92FF92CC
:100950000F931F93CF93DF93EC017A018B0177FF05
:100960000BC06DE20E94690410950095F094E0942C
:10097000E11CF11C011D111D2AE0B801A701CE01E7
:100980000E945304DF91CF911F910F91FF90EF9040
:1009900008950F931F938C010E94A604C8010E9422
:1009A0006D041F910F9108952115310521F4642FD5
:1009B0000E94690408952A30310519F40E94A604A2
:1009C00008950E94530408950F931F938C010E9471
:1009D000D404C8010E946D041F910F910895AB01CA
:1009E000662757FD6095762F0E94A60408950F9301
:1009F0001F938C010E94EF04C8010E946D041F9197
:100A00000F910895CB010E94670708950F931F93DC
:100A10008C010E940205C8010E946D041F910F9174
:100A200008950E94480608950E94290608950E948C
:100A3000180699270895CB01BA010E94D705089599
:100A400008950895282F3327C90185579F4FFC012A
:100A5000949129583F4FF9018491882381F0E82F20
:100A6000FF27E859FF4FE491FF27662329F480818F
:100A700090958923808308958081892B80830895B0
:100A8000482F5527CA0181569F4FFC012491CA0166
:100A900085579F4FFC01949149585F4FFA0134915B
:100AA000332319F480E090E00895222331F12330BC
:100AB00021F4809180008F7705C0243031F480913B
:100AC00080008F7D8093800018C0213019F484B598
:100AD0008F7704C0223021F484B58F7D84BD0DC092
:100AE000263021F48091B0008F7705C0273029F49B
:100AF0008091B0008F7D8093B000E32FFF27EE58E8
:100B0000FF4FE491FF27808120E030E0892311F03E
:100B100021E030E0C9010895482F5527CA018156C8
:100B20009F4FFC012491CA0185579F4FFC0194916E
:100B300049585F4FFA0134913323C1F1222331F137
:100B4000233021F4809180008F7705C0243031F468
:100B5000809180008F7D8093800018C0213019F42F
:100B600084B58F7704C0223021F484B58F7D84BD95
:100B70000DC0263021F48091B0008F7705C027305A
:100B800029F48091B0008F7D8093B000E32FFF2780
:100B9000E359FF4FE491FF27662329F48081909564
:100BA0008923808308958081892B80830895EF9223
:100BB000FF920F931F937B018C0122E030E040E015
:100BC00050E00E945708205C3D4B404F5F4FCA01E8
:100BD000B901A80197010E945708215030404040B8
:100BE0005040BB2757FDBA95A52F942F832F2F5F19
:100BF0003F4F4F4F5F4F8093C50021502093C4005B
:100C0000E1ECF0E080818061808380818860808376
:100C10008081806880831F910F91FF90EF900895ED
:100C2000982F8091C00085FFFCCF9093C600089557
:100C30008091A2019091A30180589F4F2091A4011F
:100C40003091A501821B930B60E870E00E9422089E
:100C500008954091A4015091A5018091A201909125
:100C6000A3018417950719F48FEF9FEF0895FA01F8
:100C7000EA55FE4F2081CA01019660E870E00E94AB
:100C800022089093A5018093A401822F99270895AB
:100C90008091A4019091A5019093A3018093A2015A
:100CA00008951F920F920FB60F9211242F933F9326
:100CB0004F935F936F937F938F939F93AF93BF9364
:100CC000EF93FF934091C600E091A201F091A30140
:100CD000CF01019660E870E00E9422089C0180919B
:100CE000A4019091A5012817390739F0EA55FE4F64
:100CF00040833093A3012093A201FF91EF91BF9114
:100D0000AF919F918F917F916F915F914F913F91A3
:100D10002F910F900FBE0F901F9018950895982F48
:100D20008091C00085FFFCCF9093C60008952F925C
:100D30003F924F925F926F927F928F929F92AF926B
:100D4000BF92CF92DF92EF92FF920F931F93CF93B8
:100D5000DF93CDB7DEB7A0970FB6F894DEBF0FBE16
:100D6000CDBF6B017C0129013A0161157105810537
:100D7000910541F48091C00085FFFCCF80E3809312
:100D8000C6004BC08824992454011E010894211CDC
:100D9000311C8101080D191DC701B601A301920183
:100DA0000E943508F80160830894811C911CA11CE5
:100DB000B11CC701B601A30192010E943508690167
:100DC0007A01211531054105510519F7089481086B
:100DD0009108A108B108F101E80DF91D0894811CE2
:100DE000911CA11CB11C14C0089481089108A10891
:100DF000B10880818A3018F4982F905D02C0982F36
:100E0000995C8091C00085FFFCCF9093C60031971C
:100E100081149104A104B10439F7A0960FB6F89497
:100E2000DEBF0FBECDBFDF91CF911F910F91FF901D
:100E3000EF90DF90CF90BF90AF909F908F907F907A
:100E40006F905F904F903F902F90089520E130E099
:100E500040E050E00E949706089528E030E040E02E
:100E600050E00E949706089522E030E040E050E014
:100E70000E94970608958091C00085FFFCCF8AE00C
:100E80008093C6000895EF92FF920F931F937B010A
:100E90008C0197FF0FC08091C00085FFFCCF8DE2D1
:100EA0008093C60010950095F094E094E11CF11C2D
:100EB000011D111D2AE030E040E050E0C801B701FB
:100EC0000E9497061F910F91FF90EF900895FC01EB
:100ED00007C08091C00085FFFCCF31969093C6007B
:100EE00090819923B1F708951F920F920FB60F9238
:100EF00011248F939F93AF93BF938091260290917B
:100F00002702A0912802B09129020196A11DB11DCE
:100F10008093260290932702A0932802B09329027F
:100F2000BF91AF919F918F910F900FBE0F901F9027
:100F30001895609126027091270280912802909165
:100F4000290227E0660F771F881F991F2A95D1F77E
:100F50002DE730E040E050E00E943508CA01B901B9
:100F60000895AF92BF92CF92DF92EF92FF920F93CC
:100F70001F935B016C010E9499077B018C010E9409
:100F800099076E197F09800B910B6A157B058C05FB
:100F90009D05A8F31F910F91FF90EF90DF90CF90E8
:100FA000BF90AF900895019751F0880F991F880F57
:100FB000991F02972FB7F8940197F1F72FBF089563
:100FC0007894109226021092270210922802109212
:100FD000290284B5826084BD84B5816084BD85B5F5
:100FE000826085BD85B5816085BDEEE6F0E08081DB
:100FF00081608083E1E8F0E080818260808380818D
:1010000081608083E0E8F0E0808181608083E1EBB3
:10101000F0E0808184608083E0EBF0E0808181609B
:101020008083EAE7F0E08081846080838081826051
:10103000808380818160808380818068808310923A
:10104000C100089597FB092E07260AD077FD04D02A
:1010500049D006D000201AF4709561957F4F08950D
:10106000F6F7909581959F4F0895A1E21A2EAA1B3D
:10107000BB1BFD010DC0AA1FBB1FEE1FFF1FA21748
:10108000B307E407F50720F0A21BB30BE40BF50B45
:10109000661F771F881F991F1A9469F760957095CE
:1010A000809590959B01AC01BD01CF01089597FB00
:1010B000092E05260ED057FD04D0D7DF0AD0001C1C
:1010C00038F450954095309521953F4F4F4F5F4FE5
:1010D0000895F6F790958095709561957F4F8F4FA5
:1010E0009F4F0895AA1BBB1B51E107C0AA1FBB1F3E
:1010F000A617B70710F0A61BB70B881F991F5A95A4
:10110000A9F780959095BC01CD010895EE0FFF1FC2
:0A1110000590F491E02D0994FFCF43
:10111A000C000B0002000700080009000A00020088
:10112A004C6120636F6E6369656E636961206465F3
:10113A002000736572206F627365727661646F0056
:10114A006163726563656E74612073750073656EA1
:10115A00736163696F6E20646520007365677572D9
:10116A00696461643F00536F7920456C2000506FB9
:10117A006C6172697A61646F72004964656E746940
:10118A006669717565736520005573616E646F20B9
:10119A00737500436F6469676F20646520626172CA
:0411AA0072617300FB
:00000001FF
