:100000000C945C000C9484000C9484000C94840088
:100010000C9484000C9484000C9484000C94840050
:100020000C9484000C9484000C9484000C94840040
:100030000C9484000C9484000C9484000C94840030
:100040000C949F070C9484000C947C060C94840000
:100050000C9484000C9484000C9484000C94840010
:100060000C9484000C948400000024272A000025AE
:10007000282B000023262904040404040404040299
:100080000202020202030303030303010204081035
:100090002040800102040810200102040810200002
:1000A0000000070002010000030406000000000039
:1000B0000000000087024C0511241FBECFEFD4E0E2
:1000C000DEBFCDBF11E0A0E0B1E0E0E7F1E102C0AA
:1000D00005900D92A23AB107D9F712E0A2EAB1E079
:1000E00001C01D92A034B107E1F710E0C8EBD0E0E9
:1000F00004C02297FE010E94B308C43BD107C9F790
:100100000E9471040C94B7080C94000070930F01C6
:1001100060930E01615070406230710530F081E0F3
:1001200090E090930F0180930E01089570930F015A
:1001300060930E01615070406230710530F081E0D3
:1001400090E090930F0180930E01089560E08091FC
:1001500004010E94B70581E090E00E94FE0761E083
:10016000809104010E94B70581E090E00E94FE07A3
:1001700060E0809104010E94B70561E070E080E0DA
:1001800090E00E94DC070895EF92FF920F931F9377
:10019000CF93DF937C018B010F701070C09106012B
:1001A000D091070108C0602F61708C2F0E94B705A5
:1001B00015950795219680910C0190910D018C1752
:1001C0009D078CF7C7010E94A600DF91CF911F9178
:1001D0000F91FF90EF9008950F931F93CF93DF93AC
:1001E0008C01EB0160E0809100010E94B7058091D5
:1001F000A2019091A301892B29F060E08091020176
:100200000E94B705BE01C8010E94C400DF91CF91D2
:100210001F910F910895EF92FF920F931F937C010E
:100220008B0194E0759567959A95E1F7C7010E9457
:10023000C4000F701070B801C7010E94C4001F9164
:100240000F91FF90EF9008950F931F93CF93DF933B
:100250008C01EB0161E0809100010E94B705809163
:10026000A2019091A301892B29F060E08091020105
:100270000E94B705BE01C8010E940B01DF91CF911A
:100280001F910F910895EF92FF920F931F93CF93B9
:10029000DF937C01EB0100E010E009C0AC0FBD1F53
:1002A0006C91772767FD7095C7010E942401A02FEC
:1002B000BB270F5F1F4FFE0101900020E9F7319728
:1002C000EC1BFD0BAE17BF0748F3DF91CF911F91D9
:1002D0000F91FF90EF9008950F931F93CF93DF93AB
:1002E0008C01EB0160E0809100010E94B7058091D4
:1002F000A2019091A301892B29F060E08091020175
:100300000E94B705BE01C8010E940B01DF91CF9189
:100310001F910F910895AF92BF92CF92DF92EF920B
:10032000FF920F931F93CF93DF935C016B01C0E0AB
:10033000D0E07A010027F7FC0095102F0AC068E191
:1003400070E0C5010E946C01C801B7010E94DC0782
:100350002196CC15DD059CF3DF91CF911F910F9174
:10036000FF90EF90DF90CF90BF90AF900895EF9205
:10037000FF920F931F93CF93DF937C01EB018A01D0
:1003800062E070E00E946C0180910E0190910F017B
:10039000019721F0229711F4085D1F4FC0E0D0E0D3
:1003A00006C064E170E0C7010E946C012196C0178D
:1003B000D107BCF3DF91CF911F910F91FF90EF9088
:1003C0000895CF93DF93EC0161E0809104010E94D6
:1003D0004D0561E0809100010E944D058091A201D0
:1003E0009091A301892B29F061E0809102010E9484
:1003F0004D0561E0809106010E944D0561E080910C
:1004000008010E944D0561E080910A010E944D059E
:1004100061E080910C010E944D0562E370E080E094
:1004200090E00E94DC0763E070E0CE010E94EC00E7
:1004300065E070E080E090E00E94DC0763E070E03F
:10044000CE010E94EC0084E690E00E94FE0763E08B
:1004500070E0CE010E94EC0065E070E080E090E08A
:100460000E94DC0762E070E0CE010E94EC0062E0D6
:1004700070E0CE010E94EC0060910E0170910F01BE
:100480006150704023E0660F771F2A95E1F7CE0197
:100490000E94EC008CE390E00E94FE076CE070E0AC
:1004A000CE010E946C018CE390E00E94FE0761E0A7
:1004B00070E0CE010E946C0163E070E080E090E0AB
:1004C0000E94DC0766E070E0CE010E946C0161E0F2
:1004D00070E080E090E00E94DC07DF91CF9108950A
:1004E00061E070E00E946C0161E070E080E090E00B
:1004F0000E94DC070895019749F46F5F7F4F31F444
:1005000062E070E084EA91E00E94960008956FEF47
:100510007FEF81E090E00E947B02089580919E0130
:100520000E946B059093A6018093A5018091A00184
:100530000E946B059093AA018093A9018091A50167
:100540009091A601892B61F48091A7019091A80157
:10055000019731F460E171E087EB91E00E94310591
:100560008091A9019091AA01892B61F48091AB013E
:100570009091AC01019731F465E171E087EB91E076
:100580000E9431058091A5019091A6019093A80148
:100590008093A7018091A9019091AA019093AC0149
:1005A0008093AB0108950E94C4072091B30130915C
:1005B000B4014091B5015091B601621B730B840BDD
:1005C000950B615777418040904058F00E94C407D6
:1005D0006093B3017093B4018093B5019093B60119
:1005E00008950E94C4072091B3013091B401409155
:1005F000B5015091B601621B730B840B950B605DC6
:10060000774080409040E9F442E350E064E170E0DC
:1006100084EA91E00E948B0184EA91E00E947002DA
:100620006AE171E084EA91E00E94430140E050E019
:1006300062E070E084EA91E00E94B70162E271E05A
:100640002FC00E94C4072091B3013091B4014091A2
:10065000B5015091B601621B730B840B950B605A68
:100660007F408040904009F542E350E064E170E053
:1006700084EA91E00E948B0184EA91E00E9470027A
:100680006EE271E084EA91E00E94430140E050E0B4
:1006900062E070E084EA91E00E94B7016DE371E0EE
:1006A00084EA91E00E94430108950E94C4072091CA
:1006B000B3013091B4014091B5015091B601621B74
:1006C000730B840B950B605777418040904091F4F9
:1006D00042E350E064E170E084EA91E00E948B0123
:1006E00084EA91E00E94700267E471E084EA91E09C
:1006F0000E94430108950E94C4072091AF013091E8
:10070000B0014091B1015091B201621B730B840B97
:10071000950B69557B418040904058F00E94C4077A
:100720006093AF017093B0018093B1019093B201D7
:1007300008950E94C4072091AF013091B00140910B
:10074000B1015091B201621B730B840B950B685E73
:10075000734080409040E9F442E350E064E170E08F
:1007600084EA91E00E948B0184EA91E00E94700289
:1007700068E571E084EA91E00E94430140E050E0C6
:1007800062E070E084EA91E00E94B7016AE671E0FD
:100790002FC00E94C4072091AF013091B001409159
:1007A000B1015091B201621B730B840B950B64591C
:1007B00071418040904009F542E350E064E170E00F
:1007C00084EA91E00E948B0184EA91E00E94700229
:1007D00068E771E084EA91E00E94430140E050E064
:1007E00062E070E084EA91E00E94B70165E871E0A0
:1007F00084EA91E00E94430108950E94C407209179
:10080000AF013091B0014091B1015091B201621B32
:10081000730B840B950B68557B418040904091F49D
:1008200042E350E064E170E084EA91E00E948B01D1
:1008300084EA91E00E94700263E971E084EA91E049
:100840000E94430108950E948E0287EB91E00E946E
:100850004205882341F087EB91E00E943F05909389
:10086000AE018093AD018091AD019091AE01C29730
:1008700011F40E947B038091AD019091AE01C3976A
:1008800011F40E94D302089560E080919E010E94BD
:100890004D0560E08091A0010E944D0540E855E2C1
:1008A00060E070E087EB91E00E94460584EA91E009
:1008B0000E94E1010E94D3020E94C4076093AF012D
:1008C0007093B0018093B1019093B2010E94C4076C
:1008D0006093B3017093B4018093B5019093B60116
:1008E0000895CFEFD4E0DEBFCDBF0E940B080E9479
:1008F00044040E942304FDCF08950895CB01BA015A
:100900003327442755270E94C20608952AE00E94F3
:100910007E040895AB01662777270E948604089518
:10092000862F0E94BA060895862F0E94BA0608955F
:100930000F931F938C016DE00E9494046AE0C8013C
:100940000E9494041F910F9108950F931F938C019F
:100950000E948604C8010E9498041F910F91089577
:100960000F931F938C010E948A04C8010E9498046F
:100970001F910F9108950F931F938C010E94900473
:10098000C8010E9498041F910F9108950F931F931F
:100990008C010E949404C8010E9498041F910F9139
:1009A0000895EF92FF920F931F93CF93DF93EC0183
:1009B0007A018B0177FF0BC06DE20E9494041095C1
:1009C0000095F094E094E11CF11C011D111D2AE03A
:1009D000B801A701CE010E947E04DF91CF911F9143
:1009E0000F91FF90EF9008950F931F938C010E9439
:1009F000D104C8010E9498041F910F9108952115F8
:100A0000310521F4642F0E94940408952A303105A1
:100A100019F40E94D10408950E947E0408950F9352
:100A20001F938C010E94FF04C8010E9498041F912B
:100A30000F910895AB01662757FD6095762F0E94B0
:100A4000D10408950F931F938C010E941A05C801C9
:100A50000E9498041F910F910895CB010E94920764
:100A600008950F931F938C010E942D05C8010E94C9
:100A700098041F910F9108950E94730608950E9493
:100A8000540608950E94430699270895CB01BA01A0
:100A90000E940206089508950895282F3327C9015A
:100AA00085579F4FFC01949129583F4FF90184913C
:100AB000882381F0E82FFF27E859FF4FE491FF27B3
:100AC000662329F48081909589238083089580810D
:100AD000892B80830895482F5527CA0181569F4F3F
:100AE000FC012491CA0185579F4FFC0194914958FC
:100AF0005F4FFA013491332319F480E090E00895B8
:100B0000222331F1233021F4809180008F7705C0BA
:100B1000243031F4809180008F7D8093800018C054
:100B2000213019F484B58F7704C0223021F484B5C4
:100B30008F7D84BD0DC0263021F48091B0008F7769
:100B400005C0273029F48091B0008F7D8093B000DC
:100B5000E32FFF27EE58FF4FE491FF27808120E02D
:100B600030E0892311F021E030E0C9010895482FD9
:100B70005527CA0181569F4FFC012491CA01855710
:100B80009F4FFC01949149585F4FFA0134913323F0
:100B9000C1F1222331F1233021F4809180008F773D
:100BA00005C0243031F4809180008F7D80938000D7
:100BB00018C0213019F484B58F7704C0223021F495
:100BC00084B58F7D84BD0DC0263021F48091B000A6
:100BD0008F7705C0273029F48091B0008F7D8093F6
:100BE000B000E32FFF27E359FF4FE491FF2766236F
:100BF00029F4808190958923808308958081892BB1
:100C000080830895EF92FF920F931F937B018C01D5
:100C100022E030E040E050E00E948208205C3D4B42
:100C2000404F5F4FCA01B901A80197010E94820895
:100C30002150304040405040BB2757FDBA95A52F6A
:100C4000942F832F2F5F3F4F4F4F5F4F8093C500EF
:100C500021502093C400E1ECF0E08081806180832A
:100C60008081886080838081806880831F910F915C
:100C7000FF90EF900895982F8091C00085FFFCCFE2
:100C80009093C60008958091B8019091B901805861
:100C90009F4F2091BA013091BB01821B930B60E8FA
:100CA00070E00E944D0808954091BA015091BB0137
:100CB0008091B8019091B9018417950719F48FEFCD
:100CC0009FEF0895FA01E454FE4F2081CA01019676
:100CD00060E870E00E944D089093BB018093BA01D8
:100CE000822F992708958091BA019091BB0190932A
:100CF000B9018093B80108951F920F920FB60F9219
:100D000011242F933F934F935F936F937F938F9310
:100D10009F93AF93BF93EF93FF934091C600E091F1
:100D2000B801F091B901CF01019660E870E00E942E
:100D30004D089C018091BA019091BB012817390799
:100D400039F0E454FE4F40833093B9012093B80149
:100D5000FF91EF91BF91AF919F918F917F916F9193
:100D60005F914F913F912F910F900FBE0F901F9069
:100D700018950895982F8091C00085FFFCCF90931F
:100D8000C60008952F923F924F925F926F927F928A
:100D90008F929F92AF92BF92CF92DF92EF92FF928B
:100DA0000F931F93CF93DF93CDB7DEB7A0970FB606
:100DB000F894DEBF0FBECDBF6B017C0129013A0163
:100DC000611571058105910541F48091C00085FF91
:100DD000FCCF80E38093C6004BC088249924540143
:100DE0001E010894211C311C8101080D191DC70129
:100DF000B601A30192010E946008F8016083089483
:100E0000811C911CA11CB11CC701B601A301920158
:100E10000E94600869017A012115310541055105DB
:100E200019F7089481089108A108B108F101E80DAB
:100E3000F91D0894811C911CA11CB11C14C00894BC
:100E400081089108A108B10880818A3018F4982F90
:100E5000905D02C0982F995C8091C00085FFFCCF07
:100E60009093C600319781149104A104B10439F71D
:100E7000A0960FB6F894DEBF0FBECDBFDF91CF9125
:100E80001F910F91FF90EF90DF90CF90BF90AF90A8
:100E90009F908F907F906F905F904F903F902F909A
:100EA000089520E130E040E050E00E94C20608953D
:100EB00028E030E040E050E00E94C206089522E0C1
:100EC00030E040E050E00E94C20608958091C000EA
:100ED00085FFFCCF8AE08093C6000895EF92FF92D1
:100EE0000F931F937B018C0197FF0FC08091C0006F
:100EF00085FFFCCF8DE28093C60010950095F0949D
:100F0000E094E11CF11C011D111D2AE030E040E0DD
:100F100050E0C801B7010E94C2061F910F91FF90D7
:100F2000EF900895FC0107C08091C00085FFFCCFC1
:100F300031969093C60090819923B1F708951F923E
:100F40000F920FB60F9211248F939F93AF93BF937D
:100F500080913C0290913D02A0913E02B0913F02EF
:100F60000196A11DB11D80933C0290933D02A09378
:100F70003E02B0933F02BF91AF919F918F910F902E
:100F80000FBE0F901F90189560913C0270913D022A
:100F900080913E0290913F0227E0660F771F881FE5
:100FA000991F2A95D1F72DE730E040E050E00E94EC
:100FB0006008CA01B9010895AF92BF92CF92DF9243
:100FC000EF92FF920F931F935B016C010E94C40785
:100FD0007B018C010E94C4076E197F09800B910B65
:100FE0006A157B058C059D05A8F31F910F91FF9055
:100FF000EF90DF90CF90BF90AF900895019751F0A0
:10100000880F991F880F991F02972FB7F89401979F
:10101000F1F72FBF0895789410923C0210923D0290
:1010200010923E0210923F0284B5826084BD84B566
:10103000816084BD85B5826085BD85B5816085BDD3
:10104000EEE6F0E0808181608083E1E8F0E080817D
:1010500082608083808181608083E0E8F0E080812D
:1010600081608083E1EBF0E0808184608083E0EB4D
:10107000F0E0808181608083EAE7F0E08081846035
:101080008083808182608083808181608083808191
:10109000806880831092C100089597FB092E07266F
:1010A0000AD077FD04D049D006D000201AF47095FC
:1010B00061957F4F0895F6F7909581959F4F08951C
:1010C000A1E21A2EAA1BBB1BFD010DC0AA1FBB1F4C
:1010D000EE1FFF1FA217B307E407F50720F0A21BBE
:1010E000B30BE40BF50B661F771F881F991F1A942B
:1010F00069F760957095809590959B01AC01BD0155
:10110000CF01089597FB092E05260ED057FD04D078
:10111000D7DF0AD0001C38F45095409530952195C2
:101120003F4F4F4F5F4F0895F6F79095809570951C
:1011300061957F4F8F4F9F4F0895AA1BBB1B51E1B5
:1011400007C0AA1FBB1FA617B70710F0A61BB70B37
:10115000881F991F5A95A9F780959095BC01CD01DC
:101160000895EE0FFF1F0590F491E02D0994FFCF35
:101170000C000B0002000700080009000A00020032
:10118000626F743100626F743200536F7920456C66
:101190002000506F6C6172697A61646F72004964FB
:1011A000656E746966697175657365200055736154
:1011B0006E646F20737500436F6469676F206465A8
:1011C00020626172726173004C6120636F6E6369AB
:1011D000656E6369612064652000736572206F62CB
:1011E0007365727661646F006163726563656E74C6
:1011F000612073750073656E736163696F6E20643F
:101200006520007365677572696461643F0004005E
:021210000500D7
:00000001FF
